{
  "_format": "hh-sol-artifact-1",
  "contractName": "Certificate",
  "sourceName": "contracts/Certificate.sol",
  "abi": [
    {
      "inputs": [],
      "stateMutability": "nonpayable",
      "type": "constructor"
    },
    {
      "anonymous": false,
      "inputs": [
        {
          "indexed": true,
          "internalType": "address",
          "name": "student",
          "type": "address"
        },
        {
          "indexed": false,
          "internalType": "string",
          "name": "studentName",
          "type": "string"
        },
        {
          "indexed": false,
          "internalType": "string",
          "name": "ipfsHash",
          "type": "string"
        }
      ],
      "name": "CertificateIssued",
      "type": "event"
    },
    {
      "anonymous": false,
      "inputs": [
        {
          "indexed": true,
          "internalType": "address",
          "name": "student",
          "type": "address"
        },
        {
          "indexed": false,
          "internalType": "uint256",
          "name": "index",
          "type": "uint256"
        }
      ],
      "name": "CertificateRevoked",
      "type": "event"
    },
    {
      "inputs": [
        {
          "internalType": "address",
          "name": "student",
          "type": "address"
        },
        {
          "internalType": "uint256",
          "name": "index",
          "type": "uint256"
        }
      ],
      "name": "getCertificateAt",
      "outputs": [
        {
          "internalType": "string",
          "name": "",
          "type": "string"
        },
        {
          "internalType": "string",
          "name": "",
          "type": "string"
        },
        {
          "internalType": "bool",
          "name": "",
          "type": "bool"
        }
      ],
      "stateMutability": "view",
      "type": "function"
    },
    {
      "inputs": [
        {
          "internalType": "address",
          "name": "student",
          "type": "address"
        }
      ],
      "name": "getCertificateCount",
      "outputs": [
        {
          "internalType": "uint256",
          "name": "",
          "type": "uint256"
        }
      ],
      "stateMutability": "view",
      "type": "function"
    },
    {
      "inputs": [
        {
          "internalType": "address",
          "name": "student",
          "type": "address"
        },
        {
          "internalType": "string",
          "name": "studentName",
          "type": "string"
        },
        {
          "internalType": "string",
          "name": "ipfsHash",
          "type": "string"
        }
      ],
      "name": "issueCertificate",
      "outputs": [],
      "stateMutability": "nonpayable",
      "type": "function"
    },
    {
      "inputs": [
        {
          "internalType": "address",
          "name": "student",
          "type": "address"
        },
        {
          "internalType": "uint256",
          "name": "index",
          "type": "uint256"
        }
      ],
      "name": "revokeCertificate",
      "outputs": [],
      "stateMutability": "nonpayable",
      "type": "function"
    },
    {
      "inputs": [],
      "name": "university",
      "outputs": [
        {
          "internalType": "address",
          "name": "",
          "type": "address"
        }
      ],
      "stateMutability": "view",
      "type": "function"
    }
  ],
  "bytecode": "0x6080604052348015600f57600080fd5b50336000806101000a81548173ffffffffffffffffffffffffffffffffffffffff021916908373ffffffffffffffffffffffffffffffffffffffff1602179055506112a58061005f6000396000f3fe608060405234801561001057600080fd5b50600436106100575760003560e01c8063ae12894e1461005c578063b1d5ccf81461007a578063dbf264d6146100aa578063e98ac4d8146100dc578063ee5354a5146100f8575b600080fd5b610064610114565b60405161007191906108a5565b60405180910390f35b610094600480360381019061008f9190610900565b610138565b6040516100a19190610946565b60405180910390f35b6100c460048036038101906100bf919061098d565b610184565b6040516100d393929190610a78565b60405180910390f35b6100f660048036038101906100f19190610bf2565b6103d7565b005b610112600480360381019061010d919061098d565b610685565b005b60008054906101000a900473ffffffffffffffffffffffffffffffffffffffff1681565b6000600160008373ffffffffffffffffffffffffffffffffffffffff1673ffffffffffffffffffffffffffffffffffffffff168152602001908152602001600020805490509050919050565b6060806000600160008673ffffffffffffffffffffffffffffffffffffffff1673ffffffffffffffffffffffffffffffffffffffff16815260200190815260200160002080549050841061020d576040517f08c379a000000000000000000000000000000000000000000000000000000000815260040161020490610cc9565b60405180910390fd5b6000600160008773ffffffffffffffffffffffffffffffffffffffff1673ffffffffffffffffffffffffffffffffffffffff16815260200190815260200160002085815481106102605761025f610ce9565b5b906000526020600020906003020160405180606001604052908160008201805461028990610d47565b80601f01602080910402602001604051908101604052809291908181526020018280546102b590610d47565b80156103025780601f106102d757610100808354040283529160200191610302565b820191906000526020600020905b8154815290600101906020018083116102e557829003601f168201915b5050505050815260200160018201805461031b90610d47565b80601f016020809104026020016040519081016040528092919081815260200182805461034790610d47565b80156103945780601f1061036957610100808354040283529160200191610394565b820191906000526020600020905b81548152906001019060200180831161037757829003601f168201915b505050505081526020016002820160009054906101000a900460ff1615151515815250509050806000015181602001518260400151935093509350509250925092565b60008054906101000a900473ffffffffffffffffffffffffffffffffffffffff1673ffffffffffffffffffffffffffffffffffffffff163373ffffffffffffffffffffffffffffffffffffffff1614610465576040517f08c379a000000000000000000000000000000000000000000000000000000000815260040161045c90610dea565b60405180910390fd5b600073ffffffffffffffffffffffffffffffffffffffff168373ffffffffffffffffffffffffffffffffffffffff16036104d4576040517f08c379a00000000000000000000000000000000000000000000000000000000081526004016104cb90610e56565b60405180910390fd5b6000825111610518576040517f08c379a000000000000000000000000000000000000000000000000000000000815260040161050f90610ec2565b60405180910390fd5b600081511161055c576040517f08c379a000000000000000000000000000000000000000000000000000000000815260040161055390610f2e565b60405180910390fd5b600160008473ffffffffffffffffffffffffffffffffffffffff1673ffffffffffffffffffffffffffffffffffffffff168152602001908152602001600020604051806060016040528084815260200183815260200160011515815250908060018154018082558091505060019003906000526020600020906003020160009091909190915060008201518160000190816105f791906110fa565b50602082015181600101908161060d91906110fa565b5060408201518160020160006101000a81548160ff02191690831515021790555050508273ffffffffffffffffffffffffffffffffffffffff167f47cc4ced4606cf64a6565f021a305c4cb93bfd53abc74f8321ff3552f6ab754a83836040516106789291906111cc565b60405180910390a2505050565b60008054906101000a900473ffffffffffffffffffffffffffffffffffffffff1673ffffffffffffffffffffffffffffffffffffffff163373ffffffffffffffffffffffffffffffffffffffff1614610713576040517f08c379a000000000000000000000000000000000000000000000000000000000815260040161070a90610dea565b60405180910390fd5b600160008373ffffffffffffffffffffffffffffffffffffffff1673ffffffffffffffffffffffffffffffffffffffff168152602001908152602001600020805490508110610797576040517f08c379a000000000000000000000000000000000000000000000000000000000815260040161078e9061124f565b60405180910390fd5b6000600160008473ffffffffffffffffffffffffffffffffffffffff1673ffffffffffffffffffffffffffffffffffffffff16815260200190815260200160002082815481106107ea576107e9610ce9565b5b906000526020600020906003020160020160006101000a81548160ff0219169083151502179055508173ffffffffffffffffffffffffffffffffffffffff167f4eccfa1b61f5d33b8d9c8f3ec5a92e8cd7ae963d459827b036e42bef0df4cf44826040516108589190610946565b60405180910390a25050565b600073ffffffffffffffffffffffffffffffffffffffff82169050919050565b600061088f82610864565b9050919050565b61089f81610884565b82525050565b60006020820190506108ba6000830184610896565b92915050565b6000604051905090565b600080fd5b600080fd5b6108dd81610884565b81146108e857600080fd5b50565b6000813590506108fa816108d4565b92915050565b600060208284031215610916576109156108ca565b5b6000610924848285016108eb565b91505092915050565b6000819050919050565b6109408161092d565b82525050565b600060208201905061095b6000830184610937565b92915050565b61096a8161092d565b811461097557600080fd5b50565b60008135905061098781610961565b92915050565b600080604083850312156109a4576109a36108ca565b5b60006109b2858286016108eb565b92505060206109c385828601610978565b9150509250929050565b600081519050919050565b600082825260208201905092915050565b60005b83811015610a075780820151818401526020810190506109ec565b60008484015250505050565b6000601f19601f8301169050919050565b6000610a2f826109cd565b610a3981856109d8565b9350610a498185602086016109e9565b610a5281610a13565b840191505092915050565b60008115159050919050565b610a7281610a5d565b82525050565b60006060820190508181036000830152610a928186610a24565b90508181036020830152610aa68185610a24565b9050610ab56040830184610a69565b949350505050565b600080fd5b600080fd5b7f4e487b7100000000000000000000000000000000000000000000000000000000600052604160045260246000fd5b610aff82610a13565b810181811067ffffffffffffffff82111715610b1e57610b1d610ac7565b5b80604052505050565b6000610b316108c0565b9050610b3d8282610af6565b919050565b600067ffffffffffffffff821115610b5d57610b5c610ac7565b5b610b6682610a13565b9050602081019050919050565b82818337600083830152505050565b6000610b95610b9084610b42565b610b27565b905082815260208101848484011115610bb157610bb0610ac2565b5b610bbc848285610b73565b509392505050565b600082601f830112610bd957610bd8610abd565b5b8135610be9848260208601610b82565b91505092915050565b600080600060608486031215610c0b57610c0a6108ca565b5b6000610c19868287016108eb565b935050602084013567ffffffffffffffff811115610c3a57610c396108cf565b5b610c4686828701610bc4565b925050604084013567ffffffffffffffff811115610c6757610c666108cf565b5b610c7386828701610bc4565b9150509250925092565b7f496e646578206f7574206f6620626f756e647300000000000000000000000000600082015250565b6000610cb36013836109d8565b9150610cbe82610c7d565b602082019050919050565b60006020820190508181036000830152610ce281610ca6565b9050919050565b7f4e487b7100000000000000000000000000000000000000000000000000000000600052603260045260246000fd5b7f4e487b7100000000000000000000000000000000000000000000000000000000600052602260045260246000fd5b60006002820490506001821680610d5f57607f821691505b602082108103610d7257610d71610d18565b5b50919050565b7f4f6e6c7920756e69766572736974792063616e20706572666f726d207468697360008201527f20616374696f6e00000000000000000000000000000000000000000000000000602082015250565b6000610dd46027836109d8565b9150610ddf82610d78565b604082019050919050565b60006020820190508181036000830152610e0381610dc7565b9050919050565b7f496e76616c69642073747564656e742061646472657373000000000000000000600082015250565b6000610e406017836109d8565b9150610e4b82610e0a565b602082019050919050565b60006020820190508181036000830152610e6f81610e33565b9050919050565b7f53747564656e74206e616d652063616e6e6f7420626520656d70747900000000600082015250565b6000610eac601c836109d8565b9150610eb782610e76565b602082019050919050565b60006020820190508181036000830152610edb81610e9f565b9050919050565b7f4950465320686173682063616e6e6f7420626520656d70747900000000000000600082015250565b6000610f186019836109d8565b9150610f2382610ee2565b602082019050919050565b60006020820190508181036000830152610f4781610f0b565b9050919050565b60008190508160005260206000209050919050565b60006020601f8301049050919050565b600082821b905092915050565b600060088302610fb07fffffffffffffffffffffffffffffffffffffffffffffffffffffffffffffffff82610f73565b610fba8683610f73565b95508019841693508086168417925050509392505050565b6000819050919050565b6000610ff7610ff2610fed8461092d565b610fd2565b61092d565b9050919050565b6000819050919050565b61101183610fdc565b61102561101d82610ffe565b848454610f80565b825550505050565b600090565b61103a61102d565b611045818484611008565b505050565b5b818110156110695761105e600082611032565b60018101905061104b565b5050565b601f8211156110ae5761107f81610f4e565b61108884610f63565b81016020851015611097578190505b6110ab6110a385610f63565b83018261104a565b50505b505050565b600082821c905092915050565b60006110d1600019846008026110b3565b1980831691505092915050565b60006110ea83836110c0565b9150826002028217905092915050565b611103826109cd565b67ffffffffffffffff81111561111c5761111b610ac7565b5b6111268254610d47565b61113182828561106d565b600060209050601f8311600181146111645760008415611152578287015190505b61115c85826110de565b8655506111c4565b601f19841661117286610f4e565b60005b8281101561119a57848901518255600182019150602085019450602081019050611175565b868310156111b757848901516111b3601f8916826110c0565b8355505b6001600288020188555050505b505050505050565b600060408201905081810360008301526111e68185610a24565b905081810360208301526111fa8184610a24565b90509392505050565b7f496e76616c696420696e64657800000000000000000000000000000000000000600082015250565b6000611239600d836109d8565b915061124482611203565b602082019050919050565b600060208201905081810360008301526112688161122c565b905091905056fea2646970667358221220a16357297b0e4c66ab1d30e1598cdffa16b6598245e08d35040bbeb75ab6ccf664736f6c634300081c0033",
  "linkReferences": {},
  "deployedLinkReferences": {}
}